:1000000023EF03F00000000000EF00F0000000000C
:0A0010000000000000000000F3D71C
:06001C00000000001200CC
:100022000F0E0C6E470E0D6E0D2EFED70C2EFCD74A
:06003200000000001200B6
:0A003800210E0D6E0D2EFED71200F2
:080042000AAE029E000E12003E
:0E004A00026A016A006A086A036A000E120068
:1000580058BE02D0839E01D0838E58BC02D0839CA8
:1000680001D0838C58BA02D0839A01D0838A58B8B9
:1000780002D0839801D0838847B002D0848401D00D
:1000880084948482C7DF849258B602D0839E01D0BC
:10009800838E58B402D0839C01D0838C58B202D08E
:1000A800839A01D0838A58B002D0839801D083887C
:1000B80047B002D0848401D084948482ABDF8492D8
:0C00C80047A002D0AADF01D0B3DF120075
:1000D4000B840BAE75EF00F0010E036E026A016A29
:0A00E400006A0A360232FF0E120015
:0C00EE00479057C058F0B1DF4780120067
:1000FA000B820BAE87EF00F00368026801680068A4
:08010A000A360232FF0E12005A
:100112000B800BAE95EF00F0026A0AAEFF0E026E84
:0C012200016E006E0A360232FF0E120061
:10012E00086A096A100E0C6E01340836093604503E
:10013E00085E0550D8A0053C095ED8B007D0045023
:10014E0008260550D8B0053C0926D8900036013651
:06015E000C2EEAD712008E
:080164000B6A0B86FF0E12006E
:10016C000C6A0E6A0250D8A4CFEF00F001C002F066
:10017C0000C001F0006A0E860250D8A4CFEF00F048
:10018C0001C002F0016A0E960E880250D8B4E1EF5D
:10019C0000F00E50035ED8A4D8A0E6EF00F0D89083
:1001AC0002BEEBEF00F0003601360236032ED6EF1E
:1001BC0000F0E6EF00F0010E0C6E41DFEEEF00F008
:1001CC00020E0C6E81DFEEEF00F0040E0C6E33DFCE
:0201DC0012000F
:0C01DE000E0E0D6E0D2EFED7000012005C
:1001EA00C26A381C006E0050C116070EC012C08EBB
:1001FA0050C000F000360090003600900050C21245
:10020A00C280E8DFC282C2A201D0FDD7C4CF01F00A
:0E021A00006AC3500012000E0112C2901200C2
:100228000900F5CFE6FF0006FBE10106F9E112003F
:10023800969296949598959A959C959E8492849476
:10024800839E839C839A8398E8DEE7DEE6DE838AD2
:1002580083888482DFDE8492E0DE8482DBDE84921F
:10026800DCDE8482D7DE8492D8DE83988482D2DE74
:100278008492D3DE8482CEDE8492839A838E8482B3
:10028800C9DE8492CADE839E83888482C3DE849218
:1002980083988482BFDE8492C0DE8482BBDE84922F
:1002A80083888482B7DE8492B8DE83988482B2DE43
:1002B8008492838E838C838A83888482ABDE849243
:0602C800ACDE47801200CD
:1002CE000050086E0150006E016A026A036A0B6AE2
:1002DE000C6A960E036E0A6A00C001F008C000F0A8
:0802EE00086A026A3CDF1200FD
:1002F6000450000A12E10550000A0FE10650000AF8
:100306000CE10750000A09E1FF0E006EFF0E016EB8
:100316007F0E026EFF0E036EA4D0086A096A0750AC
:10032600D8B426EF02F00350D8B42AEF02F00250F8
:1003360006180A6E028E068E0E6A02C008F001C00A
:100346000CF000C00DF004500D5E0550D8A0053C21
:100356000C5E0650D8A0063C085E086A0C6A0D6A58
:10036600D8A0BDEF01F0D890023201320032083237
:10037600010E0E6E0750035ED8A0CAEF01F07E0E86
:100386000E240326D8B02EEF02F0D0EF01F07E0E39
:100396000E240326D8A032EF02F0180E0B6E0D368F
:1003A6000C3608360036013602360E360450005E2C
:1003B6000550D8A0053C015E0650D8A0063C025E5A
:1003C60006340E120EA0EBEF01F00D80F6EF01F0F1
:1003D600045000260550D8B0053C01260650D8B07A
:1003E600062802260D900B2ED2EF01F01CEF02F02C
:1003F600D8900036013602360E360450005E05509F
:10040600D8A0053C015E0650D8A0063C025E063424
:100416000E10010B0D26D8B00C2AD8B4082AD8A481
:100426001CEF02F008320C320D32032AD8B42EEF3C
:1004360002F00AAE089E0850026E0C50016E0D5076
:10044600006E34EF02F0010E8ADE34EF02F0020E87
:10045600F9DD34EF02F0040E4DDE34EF02F0080E43
:0404660036DE12006C
:10046A000B6A0350D8B47BEF02F002500A6E028E78
:10047A008E0E035E03AE7FEF02F0036C080E035C80
:10048A00D8A05AEF02F0036E013602C001F0026AE8
:10049A00080E035CD8A05AEF02F0036E0136016A17
:1004AA000350D8A4D89064EF02F00350D8B464EF94
:1004BA0002F0D89002320132032E5EEF02F00BBC3A
:1004CA0001A071EF02F0D8A071EF02F0012AD8B4AE
:1004DA00022A02BE8EEF02F00AAE93EF02F0021E6B
:1004EA00011E012AD8B4022A93EF02F0026A016AB5
:1004FA0093EF02F00B800BAE97EF02F0026A0AAE9E
:10050A0097EF02F0FF0E026E016E0A36023297EF83
:10051A0002F0010E0C6EF8DD99EF02F0000E0C6E7F
:10052A0099EF02F0FF0E0C6E0150006E0250016E40
:02053A001200AD
:10053C000FD0800E506E19D0C00E506E16D0940E87
:10054C00506E13D0D40E506E10D0800E506E0DD055
:10055C005050010AEEE05050020AEEE05050030AEF
:10056C00EEE05050040AEEE0F0D75104006E50500B
:10057C00002600C050F000C058F068DD4790546A67
:10058C0054505224E96E000E5320EA6EEE520BE0EA
:10059C0054505224E96E000E5320EA6EEECF57F001
:0A05AC00A0DD542AEDD747801200AD
:1005B600546A050E545C0AE254505224E16E000E51
:1005C6005320E26E200EE66E542AF3D7545052247E
:1005D600E16E000E5320E26EE66A54065450522431
:1005E600556E000E5320566E0A0E046E000E056EF2
:1005F60050C000F051C001F097DD08C000F009C0FE
:1006060001F0300E002655C0E1FF56C0E2FF00C0E3
:10061600E6FF0A0E046E000E056E50C000F051C0D3
:1006260001F082DD00C050F001C051F0000E01184B
:1006360002E1000E001801E102D05406CFD71200E5
:1006460012EC04F04E6A4F6A0E0EC16EF2DD506A6D
:10065600C9DD3ADE140E046EAE0E056E230E066E6E
:10066600820E076E45DEFEDE00C04EF001C04FF082
:1006760000C050F001C051F0480E526E000E536E8D
:1006860097DF020E506E010E516E480E526E000E2E
:10069600536E51DF000E4F1802E1000E4E181AE19C
:1006A600010E506E010E516E2E0E526E000E536EDE
:1006B60042DF060E0B6E130E0C6EAD0E0D6E0D2E7A
:1006C600FED70C2EFCD70B2EFAD700000000010E29
:1006D600586EBFDC800E4F18016E800E015C02E181
:1006E600010E4E5C000ED8B0010E016E800E006E3B
:1006F600800E4F18005C02E14E501408000ED8B070
:10070600010E006E015000161AE0010E506E010E29
:10071600516E210E526E000E536E0DDF060E0B6EDD
:10072600130E0C6EAD0E0D6E0D2EFED70C2EFCD7D5
:100736000B2EFAD700000000010E586E8ADC800EE0
:100746004F18016E800E015C02E1550E4E5C000EE4
:10075600D8B0010E016E800E4F18006E800E005C40
:1007660002E1640E4E5C010ED8B0000E006E015020
:1007760000161AE0010E506E010E516E150E526EE5
:10078600000E536ED8DE060E0B6E130E0C6EAD0EFB
:100796000D6E0D2EFED70C2EFCD70B2EFAD70000B1
:1007A6000000010E586E55DC000E4F1802E1640E73
:1007B6004E181AE1010E506E010E516E390E526E30
:1007C600000E536EB8DE060E0B6E130E0C6EAD0EDB
:1007D6000D6E0D2EFED70C2EFCD70B2EFAD7000071
:0C07E6000000010E586E35DC32D7FFD742
:1008240010EE15F0320E006E010E016EF20EF66E31
:0E083400070EF76E000EF86E14EC01F01200C5
:0C07F200566F6C756D6520616C746F00B3
:0D07FE00566F6C756D6520626169786F0043
:0A080B004C43443A204D55444F0081
:0108150030B2
:0E081600566F6C756D65204D6178696D6F00D1
:020000040030CA
:0E000000000C1F1EFF8381FF0FC00FE00F409A
:00000001FF
